:100000000C942A000C949C010C9447000C9447001B
:100010000C9447000C9447000C9447000C94470044
:100020000C9447000C9447000C9447000C94620415
:100030000C9447000C9447000C9447000C94470024
:100040000C9447000C9447000C9447000C94470014
:100050000C94470011241FBECFE5D8E0DEBFCDBF12
:1000600010E0A0E6B0E0EAE9FCE002C005900D92E5
:10007000A236B107D9F720E0A2E6B0E001C01D9298
:10008000AB37B207E1F70E9472020C944B060C9456
:10009000000080916200811108C080E780936000B9
:1000A00081E0809362000E9402040895CF93DF9361
:1000B000E9E6F0E081E4868383838083118221E096
:1000C000248392E0978382E48787848781871286DE
:1000D0002587908B49E662E084E40E94710189E4FF
:1000E00090E00E9490010E94F503C0E0D0E00AC0B9
:1000F000CE01880F991F8C0F9D1F87599F4F0E941B
:10010000C3012196C630D1059CF3DF91CF910895AC
:10011000809160008E3609F06EC00BC0CE01880F52
:10012000991F8C0F9D1F87599F4F0E94E7012196B1
:1001300002C0C0E0D0E0C630D10584F389E690E08B
:100140000E94D20188E790E00E94D20160E070E056
:1001500080EA90E40E940704809160008037C1F239
:1001600089E690E00E94E70188E790E00E94E701BD
:100170000F2EF5E7EF2EF0E0FF2EF02D0CE610E04D
:1001800020E030E040EA50E460E070E080E09FE38F
:100190000E941B0280916000803709F4B9CFC8012A
:1001A0000E94E701C7010E94E7018FE690E00E94EC
:1001B000D20182E790E00E94D20160E070E080EA24
:1001C00090E40E94070480916000803709F4A0CF7A
:1001D0008FE690E00E94E70120E030E040EA50E442
:1001E00060E070E080E09FE30E941B02809160006D
:1001F000803709F48DCF80916000803709F088CF77
:1002000080917100823031F460E070E080EA90E427
:100210000E94070480916B00823089F080916E000B
:10022000833009F042C00EC0CE01880F991F8C0F99
:100230009D1F87599F4F0E94E701219605C0C0E08E
:10024000D0E002C0C0E0D0E0C630D1056CF388E752
:1002500090E00E94D2010F2EF5E7EF2EF0E0FF2E86
:10026000F02D0CE610E020E030E040EA50E460E0E1
:1002700070E080E09FE30E941B0288E790E00E940C
:10028000E701C8010E94E701C7010E94E7018FE66C
:1002900090E00E94D20182E790E00E94D20160E0EB
:1002A00070E080EA90E40E9407048FE690E00E94EC
:1002B000E7010F2EF5E7EF2EF0E0FF2EF02D0CE614
:1002C00010E020E030E040EA50E460E070E080E0E0
:1002D0009FE30E941B028EE68093600010926200F2
:1002E00017CF1F93CF93DF93C82FD62F122F0E94C3
:1002F00079028F36910559F4412F6D2F8C2F0E9472
:1003000013038F36910531F488E590E005C083E64C
:1003100090E002C083E690E0DF91CF911F910895B5
:10032000CF93DF93EC010E94ED03D0936800C0935C
:100330006700DF91CF9108951F920F920FB60F9231
:1003400011242F933F934F935F936F937F938F93DA
:100350009F93AF93BF93EF93FF93E0916700F0916A
:1003600068000995FF91EF91BF91AF919F918F9197
:100370007F916F915F914F913F912F910F900FBEA1
:100380000F901F9018954FE6FC01618180810E94BB
:1003900079028F36910519F48EED90E008958CED79
:1003A00090E00895CF93DF93EC0141E0698188816B
:1003B0000E9413038F36910529F482E08A838EED23
:1003C00090E002C08CED90E0DF91CF910895CF9343
:1003D000DF93EC0140E0698188810E9413038F362E
:1003E000910529F481E08A838EED90E002C08CEDC6
:1003F00090E0DF91CF910895CF93DF93EC01698175
:1004000088810E94AB038F36910569F48A8181301F
:1004100011F482E08A838A81823041F481E08A8308
:100420008EED90E005C08CED90E002C08EED90E086
:10043000DF91CF9108954F925F926F927F928F924A
:100440009F92AF92BF92CF92DF92EF92FF920F9363
:100450001F93CF93DF934B015C0129013A01E8011F
:100460008701C12CD12C76011FC0CE010E94FC0156
:100470008C3D910531F1C8010E94FC018C3D910534
:1004800001F1C501B4010E94070480389105B9F05B
:10049000A5019401C701B6010E949B046B017C0178
:1004A00083E08A83F8018283A3019201C701B60128
:1004B0000E941E051816CCF68EED90E002C08CED61
:1004C00090E0DF91CF911F910F91FF90EF90DF901F
:1004D000CF90BF90AF909F908F907F906F905F90E4
:1004E0004F9008950E9456000E94880080E090E09E
:1004F0000895823459F118F4813441F085C0833471
:1005000009F444C0843409F460C07EC04F3669F4F5
:100510002AB381E090E002C0880F991F6A95E2F744
:10052000822B8ABB8FE690E00895493609F06FC0B0
:100530002AB381E090E002C0880F991F6A95E2F724
:10054000809582238ABB8FE690E008954F3669F448
:1005500027B381E090E002C0880F991F6A95E2F707
:10056000822B87BB8FE690E00895493609F052C090
:1005700027B381E090E002C0880F991F6A95E2F7E7
:100580008095822387BB8FE690E008954F3669F40B
:1005900024B381E090E002C0880F991F6A95E2F7CA
:1005A000822B84BB8FE690E008954936B1F524B3E1
:1005B00081E090E002C0880F991F6A95E2F780956C
:1005C000822384BB8FE690E008954F3669F421B30F
:1005D00081E090E002C0880F991F6A95E2F7822BB4
:1005E00081BB8FE690E008954936D1F421B381E0D4
:1005F00090E002C0880F991F6A95E2F780958223E8
:1006000081BB8FE690E0089586E190E0089586E151
:1006100090E0089586E190E0089586E190E00895E5
:1006200086E190E00895823451F118F4813441F06C
:1006300083C0833409F442C0843409F45EC07CC0B2
:10064000413069F42BB381E090E002C0880F991F1C
:100650006A95E2F7822B8BBB8FE690E008954111FB
:100660006EC02BB381E090E002C0880F991F6A959D
:10067000E2F7809582238BBB8FE690E008954130AE
:1006800069F428B381E090E002C0880F991F6A9551
:10069000E2F7822B88BB8FE690E00895411152C0AB
:1006A00028B381E090E002C0880F991F6A95E2F7B5
:1006B0008095822388BB8FE690E00895413069F4ED
:1006C00025B381E090E002C0880F991F6A95E2F798
:1006D000822B85BB8FE690E00895411136C025B38B
:1006E00081E090E002C0880F991F6A95E2F780953B
:1006F000822385BB8FE690E00895413069F422B3F0
:1007000081E090E002C0880F991F6A95E2F7822B82
:1007100082BB8FE690E0089541111AC022B381E0B8
:1007200090E002C0880F991F6A95E2F780958223B6
:1007300082BB8FE690E0089581E290E0089581E227
:1007400090E0089581E290E0089581E290E00895BC
:1007500081E290E008958234B1F018F4813431F0F0
:1007600039C08334E9F0843441F134C02BB381E0E3
:1007700090E002C0880F991F6A95E2F782278BBB31
:100780008FE690E0089528B381E090E002C0880FE2
:10079000991F6A95E2F7822788BB8FE690E008955B
:1007A00025B381E090E002C0880F991F6A95E2F7B7
:1007B000822785BB8FE690E0089522B381E090E028
:1007C00002C0880F991F6A95E2F7822782BB8FE6E5
:1007D00090E008958CE290E00895789485B7826067
:1007E00085BF8BB780648BBF0895789413BE12BE0B
:1007F0008AE090E0089512BE83B7816083BF80E1F4
:1008000090E0089513BE12BE80E290E008958F92AA
:100810009F92AF92BF92CF92DF92EF92FF9220E031
:1008200034E244E759E40E94DE0520E030E040E88D
:100830005BE30E94DE050E9407054B015C0189B75E
:10084000816089BF88B7816088BF0E94FB03C09028
:100850006300D0906400E0906500F0906600A7010E
:100860009601C501B4010E94D90588231CF083B705
:100870008111EDCFA7019601C501B4010E94D905F0
:1008800018165CF4109263001092640010926500D8
:100890001092660080E890E00CC00E940204109262
:1008A000630010926400109265001092660080E46C
:1008B00090E0FF90EF90DF90CF90BF90AF909F902F
:1008C0008F9008951F920F920FB60F9211242F93BD
:1008D0003F934F935F936F937F938F939F93AF93C8
:1008E000BF93EF93FF9320E030E040E85FE3609137
:1008F00063007091640080916500909166000E9491
:100900009B046093630070936400809365009093F0
:100910006600FF91EF91BF91AF919F918F917F9171
:100920006F915F914F913F912F910F900FBE0F905C
:100930001F9018955058BB27AA270E94B2040C9408
:1009400087050E94790538F00E94800520F039F46F
:100950009F3F19F426F40C9476050EF4E095E7FB1E
:100960000C944705E92F0E94980558F3BA176207BF
:1009700073078407950720F079F4A6F50C94D20547
:100980000EF4E0950B2EBA2FA02D0B01B9019001AA
:100990000C01CA01A0011124FF27591B99F0593FEE
:1009A00050F4503E68F11A16F040A22F232F342F36
:1009B0004427585FF3CF469537952795A795F04084
:1009C0005395C9F77EF41F16BA0B620B730B840B99
:1009D000BAF09150A1F0FF0FBB1F661F771F881F51
:1009E000C2F70EC0BA0F621F731F841F48F48795A9
:1009F00077956795B795F7959E3F08F0B0CF93959B
:100A0000880F08F09927EE0F9795879508950E9413
:100A1000BA0590F09F3748F4911116F40C94D30561
:100A200060E070E080E89FE3089526F01B16611DEA
:100A3000711D811D0C944D050C9468050E942305C1
:100A400008F481E00895990F0008550FAA0BE0E81B
:100A5000FEEF16161706E807F907C0F01216130680
:100A6000E407F50798F0621B730B840B950B39F4C0
:100A70000A2661F0232B242B252B21F408950A2626
:100A800009F4A140A6958FEF811D811D089597F966
:100A90009F6780E870E060E00895882371F4772311
:100AA00021F09850872B762F07C0662311F49927E1
:100AB0000DC09051862B70E060E02AF09A95660F89
:100AC000771F881FDAF7880F9695879597F908950D
:100AD0009F3F31F0915020F4879577956795B795B2
:100AE000880F911D9695879597F908959FEF80EC53
:100AF000089500240A941616170618060906089584
:100B000000240A9412161306140605060895092EE9
:100B10000394000C11F4882352F0BB0F40F4BF2B58
:100B200011F460FF04C06F5F7F4F8F4F9F4F089598
:100B300057FD9058440F551F59F05F3F71F047958E
:100B4000880F97FB991F61F09F3F79F08795089573
:100B5000121613061406551FF2CF4695F1DF08C092
:100B6000161617061806991FF1CF869571056105AF
:100B7000089408950E94A005A0F0BEE7B91788F474
:100B8000BB279F3860F41616B11D672F782F882772
:100B9000985FF7CF869577956795B11D93959639B0
:100BA000C8F30895E894BB2766277727CB0197F908
:100BB00008950E94230508F48FEF08950E94F1051F
:100BC0000C9487050E94790538F00E94800520F07A
:100BD000952311F00C9447050C94760511240C9480
:100BE000D3050E94980570F3959FC1F3950F50E0CF
:100BF000551F629FF001729FBB27F00DB11D639FCF
:100C0000AA27F00DB11DAA1F649F6627B00DA11D74
:100C1000661F829F2227B00DA11D621F739FB00D1A
:100C2000A11D621F839FA00D611D221F749F33278A
:100C3000A00D611D231F849F600D211D822F762F23
:100C40006A2F11249F5750409AF0F1F088234AF000
:100C5000EE0FFF1FBB1F661F771F881F915050406C
:100C6000A9F79E3F510580F00C9447050C94D305DD
:100C70005F3FE4F3983ED4F3869577956795B795F3
:100C8000F795E7959F5FC1F7FE2B880F911D96950D
:0A0C9000879597F90895F894FFCFB7
:020C9A006E00EA
:00000001FF
